{
  "_format": "hh3-artifact-1",
  "contractName": "AdvancedAIEngine",
  "sourceName": "contracts/AdvancedAIEngine.sol",
  "abi": [
    {
      "inputs": [
        {
          "internalType": "address",
          "name": "_npcCoreAddress",
          "type": "address"
        }
      ],
      "stateMutability": "nonpayable",
      "type": "constructor"
    },
    {
      "anonymous": false,
      "inputs": [
        {
          "indexed": true,
          "internalType": "uint256",
          "name": "npcId",
          "type": "uint256"
        },
        {
          "indexed": false,
          "internalType": "bytes32",
          "name": "newPointer",
          "type": "bytes32"
        }
      ],
      "name": "NpcDataPointerUpdated",
      "type": "event"
    },
    {
      "inputs": [
        {
          "internalType": "uint256",
          "name": "npcId",
          "type": "uint256"
        }
      ],
      "name": "getNpcDataPointer",
      "outputs": [
        {
          "internalType": "bytes32",
          "name": "",
          "type": "bytes32"
        }
      ],
      "stateMutability": "view",
      "type": "function"
    },
    {
      "inputs": [],
      "name": "npcCore",
      "outputs": [
        {
          "internalType": "contract NPCCore",
          "name": "",
          "type": "address"
        }
      ],
      "stateMutability": "view",
      "type": "function"
    },
    {
      "inputs": [
        {
          "internalType": "uint256",
          "name": "",
          "type": "uint256"
        }
      ],
      "name": "npcDataPointer",
      "outputs": [
        {
          "internalType": "bytes32",
          "name": "",
          "type": "bytes32"
        }
      ],
      "stateMutability": "view",
      "type": "function"
    },
    {
      "inputs": [
        {
          "internalType": "uint256",
          "name": "npcId",
          "type": "uint256"
        },
        {
          "internalType": "bytes32",
          "name": "pointer",
          "type": "bytes32"
        }
      ],
      "name": "setNpcDataPointer",
      "outputs": [],
      "stateMutability": "nonpayable",
      "type": "function"
    }
  ],
  "bytecode": "0x60a034606e57601f6103a638819003918201601f19168301916001600160401b03831184841017607257808492602094604052833981010312606e57516001600160a01b03811690819003606e5760805260405161031f908161008782396080518181816095015261025f0152f35b5f80fd5b634e487b7160e01b5f52604160045260245ffdfe6080806040526004361015610012575f80fd5b5f3560e01c9081631dac096c1461028e575080634fdd45ed1461024a578063b7e9000a146100755763fa99e7e814610048575f80fd5b34610071576020366003190112610071576004355f525f602052602060405f2054604051908152f35b5f80fd5b346100715760403660031901126100715760043560243560018060a01b037f000000000000000000000000000000000000000000000000000000000000000016604051638da5cb5b60e01b8152602081600481855afa9081156101b8575f91610208575b506001600160a01b031633036101c357602060049160405192838092630bbef6c960e41b82525afa9081156101b8575f91610186575b508210156101505760207fc70090e51454a4e559e0a28a8cdb9afb75d110f7a29de385567a582c3193453c91835f525f82528060405f2055604051908152a2005b60405162461bcd60e51b815260206004820152600e60248201526d125b9d985b1a5908139410c8125160921b6044820152606490fd5b90506020813d6020116101b0575b816101a1602093836102b3565b8101031261007157518361010f565b3d9150610194565b6040513d5f823e3d90fd5b60405162461bcd60e51b815260206004820152601f60248201527f4f6e6c79206f776e65722063616e20736574206461746120706f696e746572006044820152606490fd5b90506020813d602011610242575b81610223602093836102b3565b8101031261007157516001600160a01b038116810361007157846100d9565b3d9150610216565b34610071575f366003190112610071576040517f00000000000000000000000000000000000000000000000000000000000000006001600160a01b03168152602090f35b34610071576020366003190112610071576020906004355f525f825260405f20548152f35b90601f8019910116810190811067ffffffffffffffff8211176102d557604052565b634e487b7160e01b5f52604160045260245ffdfea26469706673582212201416b1c89887da478fc76c679241da97ed7139787797623c94c02e13d6e12f2864736f6c634300081c0033",
  "linkReferences": {},
  "deployedLinkReferences": {},
  "immutableReferences": {
    "184": [
      {
        "length": 32,
        "start": 149
      },
      {
        "length": 32,
        "start": 607
      }
    ]
  },
  "inputSourceName": "project/contracts/AdvancedAIEngine.sol",
  "buildInfoId": "solc-0_8_28-c59dd0e62cbb710df27d7a94551a464da9f92c99"
}