{
  "_format": "hh3-artifact-1",
  "contractName": "InteractionTracker",
  "sourceName": "contracts/InteractionTracker.sol",
  "abi": [
    {
      "inputs": [
        {
          "internalType": "address",
          "name": "_npcCoreAddress",
          "type": "address"
        },
        {
          "internalType": "address",
          "name": "_learningEngineAddress",
          "type": "address"
        }
      ],
      "stateMutability": "nonpayable",
      "type": "constructor"
    },
    {
      "anonymous": false,
      "inputs": [
        {
          "indexed": true,
          "internalType": "uint256",
          "name": "npcId",
          "type": "uint256"
        },
        {
          "indexed": true,
          "internalType": "address",
          "name": "player",
          "type": "address"
        },
        {
          "indexed": false,
          "internalType": "enum SharedTypes.ActionType",
          "name": "action",
          "type": "uint8"
        },
        {
          "indexed": false,
          "internalType": "bool",
          "name": "wasPositive",
          "type": "bool"
        }
      ],
      "name": "NPCInteraction",
      "type": "event"
    },
    {
      "inputs": [
        {
          "internalType": "uint256",
          "name": "npcId",
          "type": "uint256"
        }
      ],
      "name": "canInteractWith",
      "outputs": [
        {
          "internalType": "bool",
          "name": "",
          "type": "bool"
        }
      ],
      "stateMutability": "view",
      "type": "function"
    },
    {
      "inputs": [
        {
          "internalType": "uint256",
          "name": "npcId",
          "type": "uint256"
        },
        {
          "components": [
            {
              "internalType": "enum SharedTypes.ActionType",
              "name": "action",
              "type": "uint8"
            },
            {
              "internalType": "address",
              "name": "target",
              "type": "address"
            },
            {
              "internalType": "uint256",
              "name": "value1",
              "type": "uint256"
            },
            {
              "internalType": "uint256",
              "name": "value2",
              "type": "uint256"
            },
            {
              "internalType": "bytes32",
              "name": "memo",
              "type": "bytes32"
            }
          ],
          "internalType": "struct SharedTypes.InteractionContext",
          "name": "context",
          "type": "tuple"
        }
      ],
      "name": "interact",
      "outputs": [],
      "stateMutability": "nonpayable",
      "type": "function"
    },
    {
      "inputs": [],
      "name": "learningEngine",
      "outputs": [
        {
          "internalType": "contract LearningEngine",
          "name": "",
          "type": "address"
        }
      ],
      "stateMutability": "view",
      "type": "function"
    },
    {
      "inputs": [],
      "name": "npcCore",
      "outputs": [
        {
          "internalType": "contract NPCCore",
          "name": "",
          "type": "address"
        }
      ],
      "stateMutability": "view",
      "type": "function"
    },
    {
      "inputs": [],
      "name": "questSystem",
      "outputs": [
        {
          "internalType": "contract QuestSystem",
          "name": "",
          "type": "address"
        }
      ],
      "stateMutability": "view",
      "type": "function"
    },
    {
      "inputs": [
        {
          "internalType": "address",
          "name": "_questSystemAddress",
          "type": "address"
        }
      ],
      "name": "setQuestSystemAddress",
      "outputs": [],
      "stateMutability": "nonpayable",
      "type": "function"
    }
  ],
  "bytecode": "0x60c0346100a057601f610b0d38819003918201601f19168301916001600160401b038311848410176100a45780849260409485528339810103126100a057610052602061004b836100b8565b92016100b8565b6001600160a01b039182166080521660a052604051610a4090816100cd82396080518181816096015281816105f901528181610663015261093d015260a05181818161012201526105b50152f35b5f80fd5b634e487b7160e01b5f52604160045260245ffd5b51906001600160a01b03821682036100a05756fe6080806040526004361015610012575f80fd5b5f905f3560e01c908163020035d41461077457508063134e1c191461074c5780634bfeb7f5146106285780634fdd45ed146105e4578063a5475bb6146105a05763f6f6946b14610060575f80fd5b346103865760c03660031901126103865760043560a036602319011261038657604051631300ce3560e21b8152600481018290527f00000000000000000000000000000000000000000000000000000000000000006001600160a01b031691905f81602481865afa801561037b57610100915f9161057e575b5001511561054557331561050757604051630bbef6c960e41b8152602081600481865afa90811561037b575f916104d5575b5081101561049f576040516368a4328560e11b81527f00000000000000000000000000000000000000000000000000000000000000006001600160a01b031692610157600483016109c0565b60208260a481875afa91821561037b575f92610460575b505f61010492604051938480926304216cbb60e31b825287600483015233602483015261019d604483016109c0565b1515978860e48301525afa91821561037b575f9261038a575b50803b156103865760805f916020938361012460405180978196829563a234ae5d60e01b84528b60048501523360248501526060604485015261ffff815116606485015261ffff8382015116608485015261ffff60408201511660a485015261ffff60608201511660c4850152015160a060e4840152805191829182610104860152018484015e8181018301849052601f01601f191681010301925af1801561037b57610366575b50825483906001600160a01b0316806102c0575b50506024359160068310156102bc5761028e604051809461099f565b60208301527fea320de76235791c103501f150b13bc49f894a91f217876a255edc7a12d3536c60403393a380f35b8380fd5b600160243560068110156102bc576003810361033c57505060055b813b1561032d57829160648392604051948593849263c5fb50d560e01b845233600485015289602485015260448401525af180156103315715610272578161032291610796565b61032d57825f610272565b8280fd5b6040513d84823e3d90fd5b80820361034d57505060035b6102db565b6002810361035d575050816102db565b610348576102db565b6103739193505f90610796565b5f915f61025e565b6040513d5f823e3d90fd5b5f80fd5b9091503d805f833e61039c8183610796565b8101906020818303126103865780519067ffffffffffffffff8211610386570160a081830312610386576040519160a0830183811067ffffffffffffffff82111761044c576040526103ed8261080e565b83526103fb6020830161080e565b602084015261040c6040830161080e565b604084015261041d6060830161080e565b6060840152608082015167ffffffffffffffff81116103865761044092016107b8565b6080820152905f6101b6565b634e487b7160e01b5f52604160045260245ffd5b91506020823d602011610497575b8161047b60209383610796565b81010312610386575f6104906101049361081d565b925061016e565b3d915061046e565b60405162461bcd60e51b815260206004820152600e60248201526d125b9d985b1a5908139410c8125160921b6044820152606490fd5b90506020813d6020116104ff575b816104f060209383610796565b8101031261038657515f61010b565b3d91506104e3565b60405162461bcd60e51b8152602060048201526016602482015275496e76616c696420706c61796572206164647265737360501b6044820152606490fd5b60405162461bcd60e51b81526020600482015260116024820152704e5043206973206e6f742061637469766560781b6044820152606490fd5b61059a91503d805f833e6105928183610796565b81019061082a565b5f6100d9565b34610386575f366003190112610386576040517f00000000000000000000000000000000000000000000000000000000000000006001600160a01b03168152602090f35b34610386575f366003190112610386576040517f00000000000000000000000000000000000000000000000000000000000000006001600160a01b03168152602090f35b34610386576020366003190112610386576004356001600160a01b0381169081900361038657604051638da5cb5b60e01b81526020816004817f00000000000000000000000000000000000000000000000000000000000000006001600160a01b03165afa90811561037b575f9161070a575b506001600160a01b031633036106c5576bffffffffffffffffffffffff60a01b5f5416175f555f80f35b60405162461bcd60e51b815260206004820152601f60248201527f4f6e6c79206f776e65722063616e207365742071756573742073797374656d006044820152606490fd5b90506020813d602011610744575b8161072560209383610796565b8101031261038657516001600160a01b0381168103610386578261069b565b3d9150610718565b3461038657602036600319011261038657602061076a600435610921565b6040519015158152f35b34610386575f366003190112610386575f546001600160a01b03168152602090f35b90601f8019910116810190811067ffffffffffffffff82111761044c57604052565b81601f820112156103865780519067ffffffffffffffff821161044c57604051926107ed601f8401601f191660200185610796565b8284526020838301011161038657815f9260208093018386015e8301015290565b519061ffff8216820361038657565b5190811515820361038657565b6020818303126103865780519067ffffffffffffffff82116103865701610140818303126103865760405191610140830183811067ffffffffffffffff82111761044c576040528151835260208201519067ffffffffffffffff8211610386576108959183016107b8565b602083015260408101519060ff82168203610386576101209160408401526108bf6060820161080e565b60608401526108d06080820161080e565b60808401526108e160a0820161080e565b60a084015260c081015160c084015260e081015160e0840152610907610100820161081d565b610100840152015160058110156103865761012082015290565b604051631300ce3560e21b815260048101919091525f816024817f00000000000000000000000000000000000000000000000000000000000000006001600160a01b03165afa5f9181610983575b5061097957505f90565b6101000151151590565b6109989192503d805f833e6105928183610796565b905f61096f565b9060068210156109ac5752565b634e487b7160e01b5f52602160045260245ffd5b602435600681101561038657816109d69161099f565b6044356001600160a01b0381169081900361038657602082015260643560408201526084356060820152608060a43591015256fea264697066735822122026be6e0b4684f5a259adea376f2c67aff29343ae2d35b5dfaa05694113c9bebf64736f6c634300081c0033",
  "linkReferences": {},
  "deployedLinkReferences": {},
  "immutableReferences": {
    "186": [
      {
        "length": 32,
        "start": 150
      },
      {
        "length": 32,
        "start": 1529
      },
      {
        "length": 32,
        "start": 1635
      },
      {
        "length": 32,
        "start": 2365
      }
    ],
    "189": [
      {
        "length": 32,
        "start": 290
      },
      {
        "length": 32,
        "start": 1461
      }
    ]
  },
  "inputSourceName": "project/contracts/InteractionTracker.sol",
  "buildInfoId": "solc-0_8_28-4c653aeb6bdf698bd5bc511bf993e3b7886ef751"
}