{
  "_format": "hh3-artifact-1",
  "contractName": "LearningEngine",
  "sourceName": "contracts/LearningEngine.sol",
  "abi": [
    {
      "inputs": [
        {
          "internalType": "address",
          "name": "_npcCoreAddress",
          "type": "address"
        }
      ],
      "stateMutability": "nonpayable",
      "type": "constructor"
    },
    {
      "inputs": [
        {
          "internalType": "uint256",
          "name": "npcId",
          "type": "uint256"
        },
        {
          "internalType": "address",
          "name": "player",
          "type": "address"
        },
        {
          "components": [
            {
              "internalType": "enum SharedTypes.ActionType",
              "name": "action",
              "type": "uint8"
            },
            {
              "internalType": "address",
              "name": "target",
              "type": "address"
            },
            {
              "internalType": "uint256",
              "name": "value1",
              "type": "uint256"
            },
            {
              "internalType": "uint256",
              "name": "value2",
              "type": "uint256"
            },
            {
              "internalType": "bytes32",
              "name": "memo",
              "type": "bytes32"
            }
          ],
          "internalType": "struct SharedTypes.InteractionContext",
          "name": "context",
          "type": "tuple"
        },
        {
          "internalType": "bool",
          "name": "wasPositive",
          "type": "bool"
        }
      ],
      "name": "calculateInteractionOutcome",
      "outputs": [
        {
          "components": [
            {
              "internalType": "uint16",
              "name": "newRelationshipScore",
              "type": "uint16"
            },
            {
              "internalType": "uint16",
              "name": "newAggression",
              "type": "uint16"
            },
            {
              "internalType": "uint16",
              "name": "newSociability",
              "type": "uint16"
            },
            {
              "internalType": "uint16",
              "name": "newIntelligence",
              "type": "uint16"
            },
            {
              "internalType": "string",
              "name": "memorySnippet",
              "type": "string"
            }
          ],
          "internalType": "struct NPCCore.InteractionOutcome",
          "name": "",
          "type": "tuple"
        }
      ],
      "stateMutability": "view",
      "type": "function"
    },
    {
      "inputs": [
        {
          "components": [
            {
              "internalType": "enum SharedTypes.ActionType",
              "name": "action",
              "type": "uint8"
            },
            {
              "internalType": "address",
              "name": "target",
              "type": "address"
            },
            {
              "internalType": "uint256",
              "name": "value1",
              "type": "uint256"
            },
            {
              "internalType": "uint256",
              "name": "value2",
              "type": "uint256"
            },
            {
              "internalType": "bytes32",
              "name": "memo",
              "type": "bytes32"
            }
          ],
          "internalType": "struct SharedTypes.InteractionContext",
          "name": "context",
          "type": "tuple"
        }
      ],
      "name": "isInteractionPositive",
      "outputs": [
        {
          "internalType": "bool",
          "name": "",
          "type": "bool"
        }
      ],
      "stateMutability": "pure",
      "type": "function"
    },
    {
      "inputs": [
        {
          "internalType": "uint256",
          "name": "npcId",
          "type": "uint256"
        },
        {
          "internalType": "address",
          "name": "player",
          "type": "address"
        },
        {
          "internalType": "enum SharedTypes.ActionType",
          "name": "actionType",
          "type": "uint8"
        },
        {
          "internalType": "uint256",
          "name": "",
          "type": "uint256"
        }
      ],
      "name": "makeDecision",
      "outputs": [
        {
          "components": [
            {
              "internalType": "enum SharedTypes.ResponseType",
              "name": "responseType",
              "type": "uint8"
            },
            {
              "internalType": "uint16",
              "name": "intensity",
              "type": "uint16"
            },
            {
              "internalType": "string",
              "name": "contextData",
              "type": "string"
            }
          ],
          "internalType": "struct LearningEngine.Decision",
          "name": "",
          "type": "tuple"
        }
      ],
      "stateMutability": "view",
      "type": "function"
    },
    {
      "inputs": [],
      "name": "npcCore",
      "outputs": [
        {
          "internalType": "contract NPCCore",
          "name": "",
          "type": "address"
        }
      ],
      "stateMutability": "view",
      "type": "function"
    }
  ],
  "bytecode": "0x60a034607557601f61172a38819003918201601f19168301916001600160401b03831184841017607957808492602094604052833981010312607557516001600160a01b0381169081900360755760805260405161169c908161008e8239608051818181609101528181610ca60152610d860152f35b5f80fd5b634e487b7160e01b5f52604160045260245ffdfe60806040526004361015610011575f80fd5b5f3560e01c8063210b65d814610cd55780634fdd45ed14610c91578063d148650a14610c215763de96f85014610045575f80fd5b34610be5576080366003190112610be557600435610061611152565b604435916006831015610be55760606040805161007d81611198565b5f81525f6020820152015260018060a01b037f00000000000000000000000000000000000000000000000000000000000000001660405192631300ce3560e21b84528260048501525f84602481855afa918215610bf15761011a945f93610bfc575b50604051631aa5603560e31b815260048101949094526001600160a01b03909116602484015291929091602091849190829081906044820190565b03915afa918215610bf1575f92610bb1575b506101f460209360405161014086826111b4565b5f905261014c816111fa565b60028103610464575050608081019161ffff8351166102bc81115f146103c1575061018c90600361ffff617fff81600297511660011c169216049061139d565b9060405161019b6040826111b4565b6012815271646566656e736976655f726573706f6e736560701b85820152905b6101c4846111fa565b60028414806103ae575b156102a0576101f86102819361ffff806101f08160806103e897015116611389565b16911661141a565b046103e8811115610297575061ffff6103e85b165b6103e861ffff82161161028e575b61ffff80821611610285575b61ffff906040519461023886611198565b610241816111fa565b85528186860191168152604085019283526040519586958187525190610266826111fa565b860152511660408401525160608084015260808301906111d6565b0390f35b5061ffff610227565b506103e861021b565b61ffff9061020b565b6102a9846111fa565b600484148061039b575b156102f7576102d56102819361ffff806101f08160a06103e897015116611389565b046103e88111156102ee575061ffff6103e85b1661020d565b61ffff906102e8565b610300846111fa565b600384148061037e575b610319575b506102819161020d565b608061ffff910151166105dc039161ffff831161036a576103476103e89161ffff806102819616911661141a565b046103e8811115610361575061ffff6103e85b169161030f565b61ffff9061035a565b634e487b7160e01b5f52601160045260245ffd5b506101f461ffff610394816080850151166113b3565b161161030a565b506101f461ffff60a083015116116102b3565b506101f461ffff608083015116116101ce565b61012c1115610418575061ffff8092816103e0600395869351166113b3565b1604166101f40161ffff811161036a57906040516103ff6040826111b4565b60078152661c995d1c99585d60ca1b85820152906101bb565b915061ffff613fff60059360021c161660c80161ffff811161036a57906040516104436040826111b4565b600f81526e63617574696f75735f69676e6f726560881b85820152906101bb565b61046d816111fa565b600381148015610b9e575b156105b857505060a08101805161ffff16906102bc8211156104e6576104b29150600361ffff617fff60049660011c16925116049061139d565b906040516104c16040826111b4565b6013815272677261746566756c5f617373697374616e636560681b85820152906101bb565b50604082015160ff1661051857505f9160011c617fff1660c80161ffff811161036a57906105126113eb565b906101bb565b610190101561056857609661ffff6003815f951604160161ffff811161036a57906040516105476040826111b4565b600f81526e706f6c6974655f6772656574696e6760881b85820152906101bb565b61057a613fff60059360021c16611375565b906040516105896040826111b4565b601781527f72657365727665645f61636b6e6f776c6564676d656e7400000000000000000085820152906101bb565b6105c1816111fa565b600181036106ce57505060a08101916101f461ffff84511611806106bb575b156106335750600361ffff610601816001955116826060860151169061139d565b1604906040516106126040826111b4565b600f81526e6661766f7261626c655f7465726d7360881b85820152906101bb565b61ffff1691506101f482111561067f57610651600360019304611375565b906040516106606040826111b4565b600d81526c747275737465645f747261646560981b85820152906101bb565b61068c6005809304611361565b9060405161069b6040826111b4565b600e81526d6865736974616e745f747261646560901b85820152906101bb565b506101f461ffff606084015116116105e0565b6106d7816111fa565b8061082657505060a081016102bc61ffff825116115f1461073b57515f9261070d9160021c613fff169060011c617fff1661139d565b9060405161071c6040826111b4565b600d81526c7761726d5f6772656574696e6760981b85820152906101bb565b5060ff604082015116801580610817575b1561076c5750610763617fff5f9360011c16611375565b906105126113eb565b60011480610808575b156107bf5761078b600361ffff5f941604611361565b9060405161079a6040826111b4565b60138152727265737065637466756c5f6772656574696e6760681b85820152906101bb565b6107d1613fff60059360021c16611361565b906040516107e06040826111b4565b6016815275191a5cdd185b9d17d858dadb9bdddb195919db595b9d60521b85820152906101bb565b5061025861ffff831611610775565b5061012c61ffff84161161074c565b600590610832816111fa565b03610a1157506101208101805160058110156109e95760031480156109fd575b156108ea575061019061ffff831611156108a957610878617fff60049360011c16611375565b906040516108876040826111b4565b601081526f71756573745f617373697374616e636560801b85820152906101bb565b6108bb613fff60059360021c16611361565b906040516108ca6040826111b4565b600e81526d072656c756374616e745f68656c760941b85820152906101bb565b5160058110156109e95760010361099e5760a081019161019061ffff845116115f146109555750610923600361ffff5f94511604611361565b906040516109326040826111b4565b6011815270627573696e6573735f6772656574696e6760781b85820152906101bb565b6005925060021c613fff16601e0161ffff811161036a579060405161097b6040826111b4565b6011815270189d5cda5b995cdcd7da195cda5d185b9d607a1b85820152906101bb565b5f9160021c613fff16604b0161ffff811161036a57906040516109c26040826111b4565b6015815274199bdc9b585b17d858dadb9bdddb195919db595b9d605a1b85820152906101bb565b634e487b7160e01b5f52602160045260245ffd5b50805160058110156109e957600214610852565b9161ffff16916003830261ffff811690810361036a576201fffe60a084015160011b16906201fffe61fffe83169216820361036a57610a65610a5860069361ffff9361139d565b826060870151169061139d565b16049261ffff8416916102bc831115610aaf575050505f9190604051610a8c6040826111b4565b6011815270706f7369746976655f726573706f6e736560781b85820152906101bb565b829492115f14610afc57505060059160c7190161ffff811161036a5790604051610ada6040826111b4565b601081526f6e65757472616c5f726573706f6e736560801b85820152906101bb565b90925061025861ffff608084015116119081610b92575b5015610b5357610b246003926113b3565b90604051610b336040826111b4565b600e81526d61766f69645f726573706f6e736560901b85820152906101bb565b617fff60059260011c1690604051610b6c6040826111b4565b6014815273696e646966666572656e745f726573706f6e736560601b85820152906101bb565b61012c9150105f610b13565b50610ba8816111fa565b60048114610478565b9091506020813d602011610be9575b81610bcd602093836111b4565b81010312610be557610bde90611220565b905f61012c565b5f80fd5b3d9150610bc0565b6040513d5f823e3d90fd5b60209350610c1b903d805f833e610c1381836111b4565b81019061122f565b926100df565b34610be55760a0366003190112610be557604051610c3e81611168565b6004356006811015610be55781526024356001600160a01b0381168103610be55781610c87916020809401526044356040820152606435606082015260843560808201526113c7565b6040519015158152f35b34610be5575f366003190112610be5576040517f00000000000000000000000000000000000000000000000000000000000000006001600160a01b03168152602090f35b34610be557610100366003190112610be557600435610cf2611152565b60a0366043190112610be55760405191610d0b83611168565b6044356006811015610be55783526064356001600160a01b0381168103610be5576020840152608435604084015260a435606084015260c435608084015260e43580159384158203610be55760606080604051610d6781611168565b5f81525f60208201525f60408201525f83820152015260018060a01b037f0000000000000000000000000000000000000000000000000000000000000000169360405194631300ce3560e21b86528460048701525f86602481845afa948515610bf157610e0d965f9661112f575b50604051631aa5603560e31b815260048101919091526001600160a01b03909216602483015290946020918691829081906044820190565b03915afa938415610bf1575f946110f3575b506060830194600561ffff6032818951160416019461ffff861161036a5783156110b4579061ffff9682876103e88a610e5e836102819b9a999861139d565b1611156110a65750506103e85b965b888060a08160808a0151169801511692511692845190610e8c826111fa565b610e95826111fa565b6002821491828061109f575b1561104d5788846103e88e610eb883829d9e61139d565b16111561103f5750506103e85b985b610ed0826111fa565b6003821490811561102a575b8115611015575b8161100d575b5015610f9f5750505091617fff859360011c166103e884610f0a838561139d565b161115610f8c57505081610f216103e85b9461142d565b958160405199610f308b611168565b1689528160208a01911681528160408a01931683528160608a019516855260808901968752604051998a9960208b52511660208a01525116604088015251166060860152511660808401525160a08084015260c08301906111d6565b610f9a610f2191859361139d565b610f1b565b610fa8906111fa565b81611005575b50610fc1575b5083610f2181939461142d565b91613fff859360021c166103e884610fd9838561139d565b161115610ff257505081610f216103e85b935050610fb4565b611000610f2191859361139d565b610fea565b90508a610fae565b90508d610ee9565b9050611020826111fa565b6005821490610ee3565b9050611035826111fa565b6001821490610edc565b6110489161139d565b610ec5565b8b97611058826111fa565b6003821480611098575b15610ec75794846103e88a611077838561139d565b16111561108a5750506103e85b94610ec7565b6110939161139d565b611084565b5080611062565b5081610ea1565b6110af9161139d565b610e6b565b909392919061ffff8681169116818111156110e357039361ffff851161036a5761ffff96610281955b96610e6d565b50506102819361ffff965f6110dd565b9093506020813d602011611127575b8161110f602093836111b4565b81010312610be55761112090611220565b9285610e1f565b3d9150611102565b60209392919650611149903d805f833e610c1381836111b4565b95909192610dd5565b602435906001600160a01b0382168203610be557565b60a0810190811067ffffffffffffffff82111761118457604052565b634e487b7160e01b5f52604160045260245ffd5b6060810190811067ffffffffffffffff82111761118457604052565b90601f8019910116810190811067ffffffffffffffff82111761118457604052565b805180835260209291819084018484015e5f828201840152601f01601f1916010190565b600611156109e957565b67ffffffffffffffff811161118457601f01601f191660200190565b519061ffff82168203610be557565b602081830312610be55780519067ffffffffffffffff8211610be5570161014081830312610be55760405191610140830183811067ffffffffffffffff8211176111845760405281518352602082015167ffffffffffffffff8111610be557820181601f82011215610be5578051906112a782611204565b926112b560405194856111b4565b82845260208383010111610be557815f9260208093018386015e830101526020830152604081015160ff81168103610be55760408301526112f860608201611220565b606083015261130960808201611220565b608083015261131a60a08201611220565b60a083015260c081015160c083015260e081015160e0830152610100810151908115158203610be5576101209161010084015201516005811015610be55761012082015290565b61ffff60329116019061ffff821161036a57565b61ffff60649116019061ffff821161036a57565b61ffff166103e8019061ffff821161036a57565b9061ffff8091169116019061ffff821161036a57565b61ffff166103e8039061ffff821161036a57565b600290516113d4816111fa565b6113dd816111fa565b146113e757600190565b5f90565b604051906113fa6040836111b4565b6011825270667269656e646c795f6772656574696e6760781b6020830152565b8181029291811591840414171561036a57565b8051611438816111fa565b611441816111fa565b6002811461153c57611452816111fa565b6003811461151157600490611466816111fa565b14611496575060405161147a6040826111b4565b600c81526b33b932b2ba1d383630bcb2b960a11b602082015290565b61150e600582602a60206114bb60606114b360408499015161158a565b94015161158a565b6040519687946933b4bb329d34ba32b69d60b11b828701528051918291018587015e840190641d38ba3c9d60d91b84830152805192839101602f83015e01015f838201520301601f1981018352826111b4565b90565b50506040516115216040826111b4565b600b81526a3432b6381d383630bcb2b960a91b602082015290565b5061150e602b6115516040602094015161158a565b6040519384916a30ba3a30b1b59d3236b39d60a91b828401528051918291018484015e81015f838201520301601f1981018352826111b4565b8015611646575f81805b61162f57506115a281611204565b906115b060405192836111b4565b808252601f196115bf82611204565b013660208401375b80928015611628575f19820191821161036a578193600a8206603001928360301161036a578451111561161457600a9260f81b6001600160f81b0319165f1a908401601f015304916115c7565b634e487b7160e01b5f52603260045260245ffd5b5050905090565b905f19811461036a576001600a9101910480611594565b506040516116556040826111b4565b60018152600360fc1b60208201529056fea2646970667358221220329fd811c1e06d9463cda61f4e4432540c6024009ce490ff9e472c8fabd10dc364736f6c634300081c0033",
  "linkReferences": {},
  "deployedLinkReferences": {},
  "immutableReferences": {
    "184": [
      {
        "length": 32,
        "start": 145
      },
      {
        "length": 32,
        "start": 3238
      },
      {
        "length": 32,
        "start": 3462
      }
    ]
  },
  "inputSourceName": "project/contracts/LearningEngine.sol",
  "buildInfoId": "solc-0_8_28-6671d45ae769dc232ac620827c5574b17dce3fe5"
}