{
  "_format": "hh3-artifact-1",
  "contractName": "NPCCore",
  "sourceName": "contracts/NPCCore.sol",
  "abi": [
    {
      "inputs": [],
      "stateMutability": "nonpayable",
      "type": "constructor"
    },
    {
      "inputs": [
        {
          "internalType": "address",
          "name": "owner",
          "type": "address"
        }
      ],
      "name": "OwnableInvalidOwner",
      "type": "error"
    },
    {
      "inputs": [
        {
          "internalType": "address",
          "name": "account",
          "type": "address"
        }
      ],
      "name": "OwnableUnauthorizedAccount",
      "type": "error"
    },
    {
      "anonymous": false,
      "inputs": [
        {
          "indexed": true,
          "internalType": "uint256",
          "name": "npcId",
          "type": "uint256"
        },
        {
          "indexed": false,
          "internalType": "string",
          "name": "memorySnippet",
          "type": "string"
        }
      ],
      "name": "MemoryRecorded",
      "type": "event"
    },
    {
      "anonymous": false,
      "inputs": [
        {
          "indexed": true,
          "internalType": "uint256",
          "name": "npcId",
          "type": "uint256"
        },
        {
          "indexed": false,
          "internalType": "string",
          "name": "name",
          "type": "string"
        }
      ],
      "name": "NPCCreated",
      "type": "event"
    },
    {
      "anonymous": false,
      "inputs": [
        {
          "indexed": true,
          "internalType": "address",
          "name": "previousOwner",
          "type": "address"
        },
        {
          "indexed": true,
          "internalType": "address",
          "name": "newOwner",
          "type": "address"
        }
      ],
      "name": "OwnershipTransferred",
      "type": "event"
    },
    {
      "anonymous": false,
      "inputs": [
        {
          "indexed": true,
          "internalType": "uint256",
          "name": "npcId",
          "type": "uint256"
        },
        {
          "indexed": false,
          "internalType": "uint16",
          "name": "intelligence",
          "type": "uint16"
        },
        {
          "indexed": false,
          "internalType": "uint16",
          "name": "aggression",
          "type": "uint16"
        },
        {
          "indexed": false,
          "internalType": "uint16",
          "name": "sociability",
          "type": "uint16"
        }
      ],
      "name": "TraitsUpdated",
      "type": "event"
    },
    {
      "inputs": [
        {
          "internalType": "uint256",
          "name": "npcId",
          "type": "uint256"
        },
        {
          "internalType": "address",
          "name": "player",
          "type": "address"
        },
        {
          "components": [
            {
              "internalType": "uint16",
              "name": "newRelationshipScore",
              "type": "uint16"
            },
            {
              "internalType": "uint16",
              "name": "newAggression",
              "type": "uint16"
            },
            {
              "internalType": "uint16",
              "name": "newSociability",
              "type": "uint16"
            },
            {
              "internalType": "uint16",
              "name": "newIntelligence",
              "type": "uint16"
            },
            {
              "internalType": "string",
              "name": "memorySnippet",
              "type": "string"
            }
          ],
          "internalType": "struct NPCCore.InteractionOutcome",
          "name": "outcome",
          "type": "tuple"
        }
      ],
      "name": "applyInteractionOutcome",
      "outputs": [],
      "stateMutability": "nonpayable",
      "type": "function"
    },
    {
      "inputs": [
        {
          "internalType": "string",
          "name": "_name",
          "type": "string"
        },
        {
          "internalType": "uint8",
          "name": "_personality",
          "type": "uint8"
        },
        {
          "internalType": "uint16",
          "name": "_intelligence",
          "type": "uint16"
        },
        {
          "internalType": "uint16",
          "name": "_aggression",
          "type": "uint16"
        },
        {
          "internalType": "uint16",
          "name": "_sociability",
          "type": "uint16"
        },
        {
          "internalType": "enum NPCCore.Faction",
          "name": "_faction",
          "type": "uint8"
        }
      ],
      "name": "createNPC",
      "outputs": [
        {
          "internalType": "uint256",
          "name": "",
          "type": "uint256"
        }
      ],
      "stateMutability": "nonpayable",
      "type": "function"
    },
    {
      "inputs": [
        {
          "internalType": "uint256",
          "name": "npcId",
          "type": "uint256"
        }
      ],
      "name": "getMemories",
      "outputs": [
        {
          "internalType": "string[50]",
          "name": "",
          "type": "string[50]"
        }
      ],
      "stateMutability": "view",
      "type": "function"
    },
    {
      "inputs": [],
      "name": "getNPCCount",
      "outputs": [
        {
          "internalType": "uint256",
          "name": "",
          "type": "uint256"
        }
      ],
      "stateMutability": "view",
      "type": "function"
    },
    {
      "inputs": [
        {
          "internalType": "uint256",
          "name": "npcId",
          "type": "uint256"
        }
      ],
      "name": "getNPCFaction",
      "outputs": [
        {
          "internalType": "enum NPCCore.Faction",
          "name": "",
          "type": "uint8"
        }
      ],
      "stateMutability": "view",
      "type": "function"
    },
    {
      "inputs": [
        {
          "internalType": "uint256",
          "name": "npcId",
          "type": "uint256"
        }
      ],
      "name": "getNPCState",
      "outputs": [
        {
          "components": [
            {
              "internalType": "uint256",
              "name": "id",
              "type": "uint256"
            },
            {
              "internalType": "string",
              "name": "name",
              "type": "string"
            },
            {
              "internalType": "uint8",
              "name": "personality",
              "type": "uint8"
            },
            {
              "internalType": "uint16",
              "name": "intelligence",
              "type": "uint16"
            },
            {
              "internalType": "uint16",
              "name": "aggression",
              "type": "uint16"
            },
            {
              "internalType": "uint16",
              "name": "sociability",
              "type": "uint16"
            },
            {
              "internalType": "uint256",
              "name": "experiencePoints",
              "type": "uint256"
            },
            {
              "internalType": "uint256",
              "name": "lastInteraction",
              "type": "uint256"
            },
            {
              "internalType": "bool",
              "name": "isActive",
              "type": "bool"
            },
            {
              "internalType": "enum NPCCore.Faction",
              "name": "faction",
              "type": "uint8"
            }
          ],
          "internalType": "struct NPCCore.NPC",
          "name": "",
          "type": "tuple"
        }
      ],
      "stateMutability": "view",
      "type": "function"
    },
    {
      "inputs": [
        {
          "internalType": "uint256",
          "name": "npcId",
          "type": "uint256"
        },
        {
          "internalType": "address",
          "name": "player",
          "type": "address"
        }
      ],
      "name": "getRelationship",
      "outputs": [
        {
          "internalType": "uint16",
          "name": "",
          "type": "uint16"
        }
      ],
      "stateMutability": "view",
      "type": "function"
    },
    {
      "inputs": [],
      "name": "interactionTrackerAddress",
      "outputs": [
        {
          "internalType": "address",
          "name": "",
          "type": "address"
        }
      ],
      "stateMutability": "view",
      "type": "function"
    },
    {
      "inputs": [],
      "name": "learningEngineAddress",
      "outputs": [
        {
          "internalType": "address",
          "name": "",
          "type": "address"
        }
      ],
      "stateMutability": "view",
      "type": "function"
    },
    {
      "inputs": [
        {
          "internalType": "uint256",
          "name": "",
          "type": "uint256"
        },
        {
          "internalType": "uint256",
          "name": "",
          "type": "uint256"
        }
      ],
      "name": "npcMemories",
      "outputs": [
        {
          "internalType": "string",
          "name": "",
          "type": "string"
        }
      ],
      "stateMutability": "view",
      "type": "function"
    },
    {
      "inputs": [
        {
          "internalType": "uint256",
          "name": "",
          "type": "uint256"
        }
      ],
      "name": "npcMemoryIndex",
      "outputs": [
        {
          "internalType": "uint8",
          "name": "",
          "type": "uint8"
        }
      ],
      "stateMutability": "view",
      "type": "function"
    },
    {
      "inputs": [
        {
          "internalType": "uint256",
          "name": "",
          "type": "uint256"
        }
      ],
      "name": "npcs",
      "outputs": [
        {
          "internalType": "uint256",
          "name": "id",
          "type": "uint256"
        },
        {
          "internalType": "string",
          "name": "name",
          "type": "string"
        },
        {
          "internalType": "uint8",
          "name": "personality",
          "type": "uint8"
        },
        {
          "internalType": "uint16",
          "name": "intelligence",
          "type": "uint16"
        },
        {
          "internalType": "uint16",
          "name": "aggression",
          "type": "uint16"
        },
        {
          "internalType": "uint16",
          "name": "sociability",
          "type": "uint16"
        },
        {
          "internalType": "uint256",
          "name": "experiencePoints",
          "type": "uint256"
        },
        {
          "internalType": "uint256",
          "name": "lastInteraction",
          "type": "uint256"
        },
        {
          "internalType": "bool",
          "name": "isActive",
          "type": "bool"
        },
        {
          "internalType": "enum NPCCore.Faction",
          "name": "faction",
          "type": "uint8"
        }
      ],
      "stateMutability": "view",
      "type": "function"
    },
    {
      "inputs": [],
      "name": "owner",
      "outputs": [
        {
          "internalType": "address",
          "name": "",
          "type": "address"
        }
      ],
      "stateMutability": "view",
      "type": "function"
    },
    {
      "inputs": [
        {
          "internalType": "uint256",
          "name": "",
          "type": "uint256"
        },
        {
          "internalType": "address",
          "name": "",
          "type": "address"
        }
      ],
      "name": "playerRelationships",
      "outputs": [
        {
          "internalType": "uint16",
          "name": "",
          "type": "uint16"
        }
      ],
      "stateMutability": "view",
      "type": "function"
    },
    {
      "inputs": [],
      "name": "renounceOwnership",
      "outputs": [],
      "stateMutability": "nonpayable",
      "type": "function"
    },
    {
      "inputs": [
        {
          "internalType": "address",
          "name": "_interactionTrackerAddress",
          "type": "address"
        }
      ],
      "name": "setInteractionTrackerAddress",
      "outputs": [],
      "stateMutability": "nonpayable",
      "type": "function"
    },
    {
      "inputs": [
        {
          "internalType": "address",
          "name": "_learningEngineAddress",
          "type": "address"
        }
      ],
      "name": "setLearningEngineAddress",
      "outputs": [],
      "stateMutability": "nonpayable",
      "type": "function"
    },
    {
      "inputs": [
        {
          "internalType": "uint256",
          "name": "npcId",
          "type": "uint256"
        },
        {
          "internalType": "address",
          "name": "player",
          "type": "address"
        },
        {
          "internalType": "uint16",
          "name": "score",
          "type": "uint16"
        }
      ],
      "name": "setRelationship",
      "outputs": [],
      "stateMutability": "nonpayable",
      "type": "function"
    },
    {
      "inputs": [
        {
          "internalType": "address",
          "name": "newOwner",
          "type": "address"
        }
      ],
      "name": "transferOwnership",
      "outputs": [],
      "stateMutability": "nonpayable",
      "type": "function"
    }
  ],
  "bytecode": "0x608080604052346071573315605e575f8054336001600160a01b0319821681178355916001600160a01b03909116907f8be0079c531659141344cd1fd0a4f28419497f9722a3daafe3b4186f6b6457e09080a36111f190816100768239f35b631e4fbdf760e01b5f525f60045260245ffd5b5f80fdfe60806040526004361015610011575f80fd5b5f3560e01c8062eeb4ba14610d2a5780632d0bb43b146102b15780632fea8ef014610d025780633a2a8fff14610a425780634c0338d4146108bb578063715018a61461086457806388dff8b41461083c5780638da5cb5b14610815578063a234ae5d14610503578063aa0431c514610493578063bbef6c9014610476578063c011876714610433578063c4bc2abe146103f9578063cfd80af5146102f9578063d52b01a8146102b1578063df9674201461026e578063e2640c891461019f578063f2fde38b1461011a5763ffdd10bc146100e9575f80fd5b34610116576020366003190112610116576004355f526006602052602060ff60405f205416604051908152f35b5f80fd5b3461011657602036600319011261011657610133610f41565b61013b61117e565b6001600160a01b0316801561018c575f80546001600160a01b03198116831782556001600160a01b0316907f8be0079c531659141344cd1fd0a4f28419497f9722a3daafe3b4186f6b6457e09080a3005b631e4fbdf760e01b5f525f60045260245ffd5b34610116576060366003190112610116576004356101bb610f2b565b6101c3610fad565b6002546001600160a01b0316330361022a576101f990835f5260036020526101f460ff600560405f200154166110ff565b6111a4565b915f52600460205260405f209060018060a01b03165f5260205261ffff60405f20911661ffff198254161790555f80f35b606460405162461bcd60e51b815260206004820152602060248201527f43616c6c6572206973206e6f7420746865204c6561726e696e67456e67696e656044820152fd5b3461011657602036600319011261011657610287610f41565b61028f61117e565b600780546001600160a01b0319166001600160a01b0392909216919091179055005b34610116576040366003190112610116576102ca610f2b565b6004355f52600460205260405f209060018060a01b03165f52602052602061ffff60405f205416604051908152f35b346101165760203660031901126101165760043561031561113f565b5061031e61113f565b90805f52600660205260ff60405f205416905f5b60ff81169060328210156103a657825f52600560205260405f209082850160ff81116103925760ff9361037961037360019560328861038a96160690610fcd565b50610e5a565b610383828a61116d565b528761116d565b500116610332565b634e487b7160e01b5f52601160045260245ffd5b8460405180916020820160208352610660830191905f5b603281106103cc575050500390f35b919350916020806103e9600193601f198982030187528751610efa565b95019301910190849392916103bd565b34610116576020366003190112610116576004355f526003602052602060ff600560405f20015460081c166104316040518092610f1e565bf35b346101165760203660031901126101165761044c610f41565b61045461117e565b600280546001600160a01b0319166001600160a01b0392909216919091179055005b34610116575f366003190112610116576020600154604051908152f35b34610116576040366003190112610116576024356004355f52600560205260405f20906032811015610116576104c891610fcd565b6104f0576104d86104ec91610e5a565b604051918291602083526020830190610efa565b0390f35b634e487b7160e01b5f525f60045260245ffd5b346101165760603660031901126101165760043561051f610f2b565b6044359067ffffffffffffffff82116101165760a06003198336030112610116576040519060a0820182811067ffffffffffffffff8211176108015760405261056a83600401610fbe565b825261057860248401610fbe565b916020810192835261058c60448501610fbe565b92604082019384526105a060648601610fbe565b946060830195865260848101359067ffffffffffffffff82116101165760046105cc9236920101610f57565b608083019081526007549095906001600160a01b031633036107b0576106e56106c561ffff89977f6f50b9253b1f1763daa004949daf3b81899caadcd53e04908f059d0a9791b3659761063e836060998c5f52600360205261063760ff600560405f200154166110ff565b51166111a4565b908a5f52600460205260405f209060018060a01b03165f526020528260405f2091168319825416179055885f5260036020526106376106a9836106878160405f209951166111a4565b9861063760028a019a8b9062ffff0082549160081b169062ffff001916179055565b875464ffff000000191660189190911b64ffff00000016178755565b835466ffff0000000000191660289190911b66ffff000000000016178355565b6004429101555461ffff60405191818160081c168352818160181c16602084015260281c166040820152a2815f52600660205260ff60405f205416815190835f5260056020526107388160405f20610fcd565b6104f05760019261074891610ffc565b0160ff8111610392577f9f2fa3c54ab66f568a47154ab74a464d294695d488de52e90d802ecebd63b3e091603260ff6107ab931606845f52600660205260ff60405f20911660ff1982541617905551604051918291602083526020830190610efa565b0390a2005b60405162461bcd60e51b8152602060048201526024808201527f43616c6c6572206973206e6f742074686520496e746572616374696f6e54726160448201526331b5b2b960e11b6064820152608490fd5b634e487b7160e01b5f52604160045260245ffd5b34610116575f366003190112610116575f546040516001600160a01b039091168152602090f35b34610116575f366003190112610116576007546040516001600160a01b039091168152602090f35b34610116575f3660031901126101165761087c61117e565b5f80546001600160a01b0319811682556001600160a01b03167f8be0079c531659141344cd1fd0a4f28419497f9722a3daafe3b4186f6b6457e08280a3005b34610116576020366003190112610116576040516108d881610e1b565b5f81526020810160609052604081015f9052606081015f9052608081015f905260a081015f905260c081015f905260e081015f905261010081015f9052610120015f90526004355f52600360205260405f2060405161093681610e1b565b8154815261094660018301610e5a565b91602082019283526002810154604083019160ff8216835260608401908260081c61ffff16825260808501928060181c61ffff16845260a086019060281c61ffff16815260038201549060c0870191825260048301549260e08801938452600501549461010088019460ff87161515865261012089019660081c60ff166109cd9088610ff0565b604051998a9960208b525160208b01525160408a0161014090526101608a016109f591610efa565b975160ff1660608a01525161ffff1660808901525161ffff1660a08801525161ffff1660c08701525160e0860152516101008501525115156101208401525161014083016104ec91610f1e565b346101165760c03660031901126101165760043567ffffffffffffffff811161011657610a73903690600401610f57565b60243560ff811680910361011657610a89610fad565b9060643561ffff8116809103610116576084359161ffff83168093036101165760a43591600583101561011657610abe61117e565b61ffff6001549516906103e882111580610cf6575b80610cea575b15610cad5760028311610c685760405192610af384610e1b565b868452602084019588875260408501918252606085019384526080850192835260a0850190815260c08501925f845260e086019442865261010087019860018a52610120880198610b44908a610ff0565b8a5f52600360205260405f2097518855516001880190610b6391610ffc565b9251600287018054945162ffff0060089190911b1660ff90921662ffffff199095169490941717835551825464ffff000000191660189190911b64ffff0000001617825551815466ffff0000000000191660289190911b66ffff0000000000161790555160038301555160048201556005019151151590825490516005811015610c545761ff0060ff9160081b1692169061ffff1916171790556001545f198114610392577f11f091efcf4e3dde75a12ddb15f1a4fbb94e7bbf5a18ad74580e78bdce15d40d610c49602094600185940160015560405191829187835287830190610efa565b0390a2604051908152f35b634e487b7160e01b5f52602160045260245ffd5b60405162461bcd60e51b815260206004820152601e60248201527f506572736f6e616c697479206d75737420626520302c20312c206f72203200006044820152606490fd5b60405162461bcd60e51b81526020600482015260156024820152740547261697473206d75737420626520302d3130303605c1b6044820152606490fd5b506103e8851115610ad9565b506103e8811115610ad3565b34610116575f366003190112610116576002546040516001600160a01b039091168152602090f35b34610116576020366003190112610116576004355f52600360205260405f208054610d5760018301610e5a565b916104ec600282015491600381015490600560048201549101549161ffff610d93604051988998895261014060208a0152610140890190610efa565b9560ff81166040890152818160081c166060890152818160181c16608089015260281c1660a087015260c086015260e085015260ff8116151561010085015260ff61012085019160081c16610f1e565b90600182811c92168015610e11575b6020831014610dfd57565b634e487b7160e01b5f52602260045260245ffd5b91607f1691610df2565b610140810190811067ffffffffffffffff82111761080157604052565b90601f8019910116810190811067ffffffffffffffff82111761080157604052565b9060405191825f825492610e6d84610de3565b8084529360018116908115610ed85750600114610e94575b50610e9292500383610e38565b565b90505f9291925260205f20905f915b818310610ebc575050906020610e92928201015f610e85565b6020919350806001915483858901015201910190918492610ea3565b905060209250610e9294915060ff191682840152151560051b8201015f610e85565b805180835260209291819084018484015e5f828201840152601f01601f1916010190565b906005821015610c545752565b602435906001600160a01b038216820361011657565b600435906001600160a01b038216820361011657565b81601f820112156101165780359067ffffffffffffffff82116108015760405192610f8c601f8401601f191660200185610e38565b8284526020838301011161011657815f926020809301838601378301015290565b6044359061ffff8216820361011657565b359061ffff8216820361011657565b6032821015610fdc5701905f90565b634e487b7160e01b5f52603260045260245ffd5b6005821015610c545752565b919091825167ffffffffffffffff81116108015761101a8254610de3565b601f81116110ba575b506020601f821160011461105c57819293945f92611051575b50508160011b915f199060031b1c1916179055565b015190505f8061103c565b601f19821690835f52805f20915f5b8181106110a25750958360019596971061108a575b505050811b019055565b01515f1960f88460031b161c191690555f8080611080565b9192602060018192868b01518155019401920161106b565b825f5260205f20601f830160051c810191602084106110f5575b601f0160051c01905b8181106110ea5750611023565b5f81556001016110dd565b90915081906110d4565b1561110657565b60405162461bcd60e51b81526020600482015260116024820152704e5043206973206e6f742061637469766560781b6044820152606490fd5b604051906106406111508184610e38565b825f5b82811061115f57505050565b606082820152602001611153565b906032811015610fdc5760051b0190565b5f546001600160a01b0316330361119157565b63118cdaa760e01b5f523360045260245ffd5b6103e861ffff8216116111b45790565b506103e89056fea2646970667358221220c565c92d1f1a4b46d85fe8876ebe18c5e2bfe6dd9e97b6706819d1ab8f37f1bd64736f6c634300081c0033",
  "linkReferences": {},
  "deployedLinkReferences": {},
  "immutableReferences": {},
  "inputSourceName": "project/contracts/NPCCore.sol",
  "buildInfoId": "solc-0_8_28-af6e8e0e870c54e43a06af358a997bb4b3ef6b03"
}