{
  "_format": "hh3-artifact-1",
  "contractName": "QuestSystem",
  "sourceName": "contracts/QuestSystem.sol",
  "abi": [
    {
      "inputs": [
        {
          "internalType": "address",
          "name": "_npcCoreAddress",
          "type": "address"
        }
      ],
      "stateMutability": "nonpayable",
      "type": "constructor"
    },
    {
      "anonymous": false,
      "inputs": [
        {
          "indexed": true,
          "internalType": "address",
          "name": "player",
          "type": "address"
        },
        {
          "indexed": true,
          "internalType": "uint256",
          "name": "questId",
          "type": "uint256"
        }
      ],
      "name": "QuestAccepted",
      "type": "event"
    },
    {
      "anonymous": false,
      "inputs": [
        {
          "indexed": true,
          "internalType": "address",
          "name": "player",
          "type": "address"
        },
        {
          "indexed": true,
          "internalType": "uint256",
          "name": "questId",
          "type": "uint256"
        }
      ],
      "name": "QuestCompleted",
      "type": "event"
    },
    {
      "anonymous": false,
      "inputs": [
        {
          "indexed": true,
          "internalType": "uint256",
          "name": "questId",
          "type": "uint256"
        },
        {
          "indexed": false,
          "internalType": "uint256",
          "name": "npcId",
          "type": "uint256"
        },
        {
          "indexed": false,
          "internalType": "string",
          "name": "title",
          "type": "string"
        }
      ],
      "name": "QuestCreated",
      "type": "event"
    },
    {
      "anonymous": false,
      "inputs": [
        {
          "indexed": true,
          "internalType": "address",
          "name": "player",
          "type": "address"
        },
        {
          "indexed": true,
          "internalType": "uint256",
          "name": "questId",
          "type": "uint256"
        },
        {
          "indexed": false,
          "internalType": "uint256",
          "name": "newProgress",
          "type": "uint256"
        }
      ],
      "name": "QuestProgressUpdated",
      "type": "event"
    },
    {
      "anonymous": false,
      "inputs": [
        {
          "indexed": true,
          "internalType": "address",
          "name": "player",
          "type": "address"
        },
        {
          "indexed": true,
          "internalType": "uint256",
          "name": "questId",
          "type": "uint256"
        },
        {
          "indexed": false,
          "internalType": "uint256",
          "name": "rewardXP",
          "type": "uint256"
        }
      ],
      "name": "QuestRewardClaimed",
      "type": "event"
    },
    {
      "inputs": [
        {
          "internalType": "uint256",
          "name": "questId",
          "type": "uint256"
        }
      ],
      "name": "acceptQuest",
      "outputs": [],
      "stateMutability": "nonpayable",
      "type": "function"
    },
    {
      "inputs": [
        {
          "internalType": "uint256",
          "name": "questId",
          "type": "uint256"
        }
      ],
      "name": "claimReward",
      "outputs": [],
      "stateMutability": "nonpayable",
      "type": "function"
    },
    {
      "inputs": [
        {
          "internalType": "uint256",
          "name": "npcId",
          "type": "uint256"
        },
        {
          "internalType": "enum QuestSystem.QuestType",
          "name": "questType",
          "type": "uint8"
        },
        {
          "internalType": "string",
          "name": "title",
          "type": "string"
        },
        {
          "internalType": "string",
          "name": "description",
          "type": "string"
        },
        {
          "internalType": "uint256",
          "name": "targetValue",
          "type": "uint256"
        },
        {
          "internalType": "uint256",
          "name": "rewardXP",
          "type": "uint256"
        },
        {
          "internalType": "uint16",
          "name": "requiredRelationship",
          "type": "uint16"
        }
      ],
      "name": "createQuest",
      "outputs": [
        {
          "internalType": "uint256",
          "name": "",
          "type": "uint256"
        }
      ],
      "stateMutability": "nonpayable",
      "type": "function"
    },
    {
      "inputs": [
        {
          "internalType": "address",
          "name": "player",
          "type": "address"
        }
      ],
      "name": "getPlayerActiveQuests",
      "outputs": [
        {
          "internalType": "uint256[]",
          "name": "",
          "type": "uint256[]"
        }
      ],
      "stateMutability": "view",
      "type": "function"
    },
    {
      "inputs": [
        {
          "internalType": "address",
          "name": "player",
          "type": "address"
        },
        {
          "internalType": "uint256",
          "name": "questId",
          "type": "uint256"
        }
      ],
      "name": "getPlayerQuestStatus",
      "outputs": [
        {
          "components": [
            {
              "internalType": "enum QuestSystem.QuestStatus",
              "name": "status",
              "type": "uint8"
            },
            {
              "internalType": "uint256",
              "name": "progress",
              "type": "uint256"
            },
            {
              "internalType": "uint256",
              "name": "acceptedAt",
              "type": "uint256"
            }
          ],
          "internalType": "struct QuestSystem.PlayerQuest",
          "name": "",
          "type": "tuple"
        }
      ],
      "stateMutability": "view",
      "type": "function"
    },
    {
      "inputs": [],
      "name": "interactionTrackerAddress",
      "outputs": [
        {
          "internalType": "address",
          "name": "",
          "type": "address"
        }
      ],
      "stateMutability": "view",
      "type": "function"
    },
    {
      "inputs": [],
      "name": "npcCore",
      "outputs": [
        {
          "internalType": "contract NPCCore",
          "name": "",
          "type": "address"
        }
      ],
      "stateMutability": "view",
      "type": "function"
    },
    {
      "inputs": [
        {
          "internalType": "address",
          "name": "",
          "type": "address"
        },
        {
          "internalType": "uint256",
          "name": "",
          "type": "uint256"
        }
      ],
      "name": "playerQuests",
      "outputs": [
        {
          "internalType": "enum QuestSystem.QuestStatus",
          "name": "status",
          "type": "uint8"
        },
        {
          "internalType": "uint256",
          "name": "progress",
          "type": "uint256"
        },
        {
          "internalType": "uint256",
          "name": "acceptedAt",
          "type": "uint256"
        }
      ],
      "stateMutability": "view",
      "type": "function"
    },
    {
      "inputs": [
        {
          "internalType": "uint256",
          "name": "",
          "type": "uint256"
        }
      ],
      "name": "quests",
      "outputs": [
        {
          "internalType": "uint256",
          "name": "id",
          "type": "uint256"
        },
        {
          "internalType": "uint256",
          "name": "npcId",
          "type": "uint256"
        },
        {
          "internalType": "enum QuestSystem.QuestType",
          "name": "questType",
          "type": "uint8"
        },
        {
          "internalType": "string",
          "name": "title",
          "type": "string"
        },
        {
          "internalType": "string",
          "name": "description",
          "type": "string"
        },
        {
          "internalType": "uint256",
          "name": "targetValue",
          "type": "uint256"
        },
        {
          "internalType": "uint256",
          "name": "rewardXP",
          "type": "uint256"
        },
        {
          "internalType": "bool",
          "name": "isActive",
          "type": "bool"
        },
        {
          "internalType": "uint16",
          "name": "requiredRelationship",
          "type": "uint16"
        }
      ],
      "stateMutability": "view",
      "type": "function"
    },
    {
      "inputs": [
        {
          "internalType": "address",
          "name": "_address",
          "type": "address"
        }
      ],
      "name": "setInteractionTrackerAddress",
      "outputs": [],
      "stateMutability": "nonpayable",
      "type": "function"
    },
    {
      "inputs": [
        {
          "internalType": "address",
          "name": "player",
          "type": "address"
        },
        {
          "internalType": "uint256",
          "name": "npcId",
          "type": "uint256"
        },
        {
          "internalType": "uint256",
          "name": "progressIncrement",
          "type": "uint256"
        }
      ],
      "name": "updateQuestProgress",
      "outputs": [],
      "stateMutability": "nonpayable",
      "type": "function"
    }
  ],
  "bytecode": "0x60a03461008157601f6112da38819003918201601f19168301916001600160401b038311848410176100855780849260209460405283398101031261008157516001600160a01b0381169081900361008157608052604051611240908161009a82396080518181816101a00152818161082b01528181610c8b0152610dee0152f35b5f80fd5b634e487b7160e01b5f52604160045260245ffdfe6080806040526004361015610012575f80fd5b5f3560e01c908163139f399a14610d6e575080633327252d14610cba5780634fdd45ed14610c7657806383ea0150146107a357806388dff8b41461077c578063a07a472d146106d6578063ae169a5014610595578063c5fb50d5146102ed578063d3dcff7c14610288578063df967420146101725763e085f98014610095575f80fd5b3461016e57602036600319011261016e576004355f52600260205260405f20805490600181015460ff6002830154166100d0600384016110f2565b916100dd600485016110f2565b9360058101549360076006830154920154926040519788526020880152600484101561015a5786956101286101369261ffff9660408a015261012060608a0152610120890190611192565b908782036080890152611192565b9360a086015260c085015260ff8116151560e085015260081c166101008301520390f35b634e487b7160e01b5f52602160045260245ffd5b5f80fd5b3461016e57602036600319011261016e5761018b610fe6565b604051638da5cb5b60e01b81526020816004817f00000000000000000000000000000000000000000000000000000000000000006001600160a01b03165afa90811561027d575f9161024e575b506001600160a01b03163303610209575f80546001600160a01b0319166001600160a01b0392909216919091179055005b60405162461bcd60e51b815260206004820152601c60248201527f4f6e6c79206f776e65722063616e2073657420616464726573736573000000006044820152606490fd5b610270915060203d602011610276575b6102688183611035565b8101906111df565b826101d8565b503d61025e565b6040513d5f823e3d90fd5b3461016e57604036600319011261016e576001600160a01b036102a9610fe6565b165f52600360205260405f206024355f52602052606060405f2060ff8154169060026001820154910154906102e160405180946110ad565b60208301526040820152f35b3461016e57606036600319011261016e57610306610fe6565b5f5460443591602435916001600160a01b03163303610551576001600160a01b03165f81815260046020526040812091939192905b835481101561054f5761034e81856111b6565b90549060031b1c90815f52600260205260405f20865f52600360205260405f20835f5260205260405f208460018301541480610538575b610396575b5050600191500161033b565b600101908154908682018092116104e357600501805490918181111561052f575080925b5583887f95b529ceb2b4c5026133eafcb0f6e7e63f17c39398d1b67e14569272cf3c956b6020604051868152a35411156103f6575b818061038a565b855f52600360205260405f20825f5260205260405f2060ff815416600681101561015a576002036104f757600360ff19825416179055855f52600460205260405f209182545f1981019081116104e35761045361047c91856111b6565b90549060031b1c61046484866111b6565b90919082549060031b91821b915f19901b1916179055565b82549283156104cf576001935f19019061049682826111b6565b8154905f199060031b1b1916905555867f6618f11353f68847dc28cc4b36a04270fab5e356fa35386e6315ba7ff205a6335f80a36103ef565b634e487b7160e01b5f52603160045260245ffd5b634e487b7160e01b5f52601160045260245ffd5b60405162461bcd60e51b815260206004820152601060248201526f5175657374206e6f742061637469766560801b6044820152606490fd5b905080926103ba565b5060ff815416600681101561015a57600214610385565b005b606460405162461bcd60e51b815260206004820152602060248201527f4f6e6c7920496e746572616374696f6e547261636b65722063616e2063616c6c6044820152fd5b3461016e57602036600319011261016e57600435335f52600360205260405f20815f5260205260405f2060ff815416600681101561015a5760030361069b57600560ff19825416179055805f52600260205260405f206040516105f781611018565b815481526001820154602082015261061960ff600284015416604083016111fe565b610625600383016110f2565b6060820152610636600483016110f2565b6080820152600582015460a082015261010061ffff60076006850154948560c0860152015460ff8116151560e085015260081c169101526040519081527f89ddf70f60dee0505eb22a143daf80046698f56a9e1c9421cbd95c486199306f60203392a3005b60405162461bcd60e51b8152602060048201526013602482015272145d595cdd081b9bdd0818dbdb5c1b195d1959606a1b6044820152606490fd5b3461016e57604036600319011261016e576106ef610fe6565b5f604080516106fd81610ffc565b828152826020820152015260018060a01b03165f52600360205260405f206024355f5260205260405f2060405161073381610ffc565b60ff82541691600683101561015a5760609282526002600182015491602084019283520154906040830191825261076e6040518094516110ad565b516020830152516040820152f35b3461016e575f36600319011261016e575f546040516001600160a01b039091168152602090f35b3461016e5760e036600319011261016e5760043560243590600482101561016e5760443567ffffffffffffffff811161016e576107e4903690600401611057565b9160643567ffffffffffffffff811161016e57610805903690600401611057565b9160c4359261ffff841680940361016e57604051638da5cb5b60e01b81526020816004817f00000000000000000000000000000000000000000000000000000000000000006001600160a01b03165afa90811561027d575f91610c57575b506001600160a01b03163303610c1257600154935f1985146104e3576001850160015560405161089281611018565b85815260208101928484526108ab6040830196876111fe565b60608201908882526080830190815260a0830191608435835260c084019760a435895260e08501966001885261010086019687528a5f52600260205260405f2095518655516001860155600285019051600481101561015a5760ff8019835416911617905560038401905180519067ffffffffffffffff8211610b4057819061093484546110ba565b601f8111610bc2575b50602090601f8311600114610b5f575f92610b54575b50508160011b915f199060031b1c19161790555b518051600484019167ffffffffffffffff8211610b405761098883546110ba565b601f8111610afb575b5091899795939160209b9795938c90601f8311600114610a505791807f02d5ad4a93682fe684982fbee6170cabdc884ea261475b1049521cd63939bdc99b9c949260079796945f92610a45575b50508160011b915f199060031b1c19161790555b51600583015551600682015501915115159060ff62ffff008454925160081b1692169062ffffff191617179055610a3a60405192839283526040888401526040830190611192565b0390a2604051908152f35b015190508f806109de565b601f9b949392919b19821690835f528c5f20915f5b818110610ac85750917f02d5ad4a93682fe684982fbee6170cabdc884ea261475b1049521cd63939bdc99c9d84926007999897969560019510610ab0575b505050811b0190556109f2565b01515f1960f88460031b161c191690558f8080610aa3565b939597999b9d9496989a9c5090918f600181928786015181550195019301908e9c9a98969492919d9b999795939d610a65565b835f5260205f20601f840160051c81019160208510610b36575b601f0160051c01905b818110610b2b5750610991565b5f8155600101610b1e565b9091508190610b15565b634e487b7160e01b5f52604160045260245ffd5b015190508c80610953565b5f8581528281209350601f198516905b818110610baa5750908460019594939210610b92575b505050811b019055610967565b01515f1960f88460031b161c191690558c8080610b85565b92936020600181928786015181550195019301610b6f565b909150835f5260205f20601f840160051c81019160208510610c08575b90601f859493920160051c01905b818110610bfa575061093d565b5f8155849350600101610bed565b9091508190610bdf565b60405162461bcd60e51b815260206004820152601c60248201527f4f6e6c79206f776e65722063616e2063726561746520717565737473000000006044820152606490fd5b610c70915060203d602011610276576102688183611035565b86610863565b3461016e575f36600319011261016e576040517f00000000000000000000000000000000000000000000000000000000000000006001600160a01b03168152602090f35b3461016e57602036600319011261016e576001600160a01b03610cdb610fe6565b165f52600460205260405f20604051806020835491828152019081935f5260205f20905f5b818110610d585750505081610d16910382611035565b604051918291602083019060208452518091526040830191905f5b818110610d3f575050500390f35b8251845285945060209384019390920191600101610d31565b8254845260209093019260019283019201610d00565b3461016e57602036600319011261016e5760043590815f52600260205260405f2060078101549160ff831615610fae5750335f52600360205260405f20835f5260205260ff60405f205416600681101561015a57610f705760010154604051631aa5603560e31b81526004810191909152336024820152906020826044817f00000000000000000000000000000000000000000000000000000000000000006001600160a01b03165afa91821561027d575f92610f2f575b5061ffff809160081c16911610610eea57604051610e4381610ffc565b60028152602081015f815260408201428152335f52600360205260405f20845f5260205260405f20925191600683101561015a5760029260ff8019865416911617845551600184015551910155335f52600460205260405f20805468010000000000000000811015610b405761046481610ec393600186940181556111b6565b337f5563383d7e6c2c80e0ead623d7b72a1329ddf7e3d8b1edab31dc6f5b2d3a6cc95f80a3005b60405162461bcd60e51b815260206004820152601960248201527f496e73756666696369656e742072656c6174696f6e73686970000000000000006044820152606490fd5b9091506020813d602011610f68575b81610f4b60209383611035565b8101031261016e575161ffff8116810361016e579061ffff610e26565b3d9150610f3e565b60405162461bcd60e51b8152602060048201526016602482015275145d595cdd08185b1c9958591e481858dd1a5bdb995960521b6044820152606490fd5b62461bcd60e51b81526020600482015260136024820152725175657374206973206e6f742061637469766560681b6044820152606490fd5b600435906001600160a01b038216820361016e57565b6060810190811067ffffffffffffffff821117610b4057604052565b610120810190811067ffffffffffffffff821117610b4057604052565b90601f8019910116810190811067ffffffffffffffff821117610b4057604052565b81601f8201121561016e5780359067ffffffffffffffff8211610b40576040519261108c601f8401601f191660200185611035565b8284526020838301011161016e57815f926020809301838601378301015290565b90600682101561015a5752565b90600182811c921680156110e8575b60208310146110d457565b634e487b7160e01b5f52602260045260245ffd5b91607f16916110c9565b9060405191825f825492611105846110ba565b8084529360018116908115611170575060011461112c575b5061112a92500383611035565b565b90505f9291925260205f20905f915b81831061115457505090602061112a928201015f61111d565b602091935080600191548385890101520191019091849261113b565b90506020925061112a94915060ff191682840152151560051b8201015f61111d565b805180835260209291819084018484015e5f828201840152601f01601f1916010190565b80548210156111cb575f5260205f2001905f90565b634e487b7160e01b5f52603260045260245ffd5b9081602091031261016e57516001600160a01b038116810361016e5790565b600482101561015a575256fea2646970667358221220e4f40eac302125c6b7cd216f89814b1915f994ba2bf44d9bc66d35900e0f9f5e64736f6c634300081c0033",
  "linkReferences": {},
  "deployedLinkReferences": {},
  "immutableReferences": {
    "702": [
      {
        "length": 32,
        "start": 416
      },
      {
        "length": 32,
        "start": 2091
      },
      {
        "length": 32,
        "start": 3211
      },
      {
        "length": 32,
        "start": 3566
      }
    ]
  },
  "inputSourceName": "project/contracts/QuestSystem.sol",
  "buildInfoId": "solc-0_8_28-8193b40e0659edb9d2e616f88e4b4dcd838dc213"
}