{
  "_format": "hh3-artifact-1",
  "contractName": "NPCCore",
  "sourceName": "contracts/NPCCore.sol",
  "abi": [
    {
      "inputs": [],
      "stateMutability": "nonpayable",
      "type": "constructor"
    },
    {
      "inputs": [
        {
          "internalType": "address",
          "name": "owner",
          "type": "address"
        }
      ],
      "name": "OwnableInvalidOwner",
      "type": "error"
    },
    {
      "inputs": [
        {
          "internalType": "address",
          "name": "account",
          "type": "address"
        }
      ],
      "name": "OwnableUnauthorizedAccount",
      "type": "error"
    },
    {
      "anonymous": false,
      "inputs": [
        {
          "indexed": true,
          "internalType": "uint256",
          "name": "npcId",
          "type": "uint256"
        },
        {
          "indexed": false,
          "internalType": "string",
          "name": "memorySnippet",
          "type": "string"
        }
      ],
      "name": "MemoryRecorded",
      "type": "event"
    },
    {
      "anonymous": false,
      "inputs": [
        {
          "indexed": true,
          "internalType": "uint256",
          "name": "npcId",
          "type": "uint256"
        },
        {
          "indexed": false,
          "internalType": "string",
          "name": "name",
          "type": "string"
        }
      ],
      "name": "NPCCreated",
      "type": "event"
    },
    {
      "anonymous": false,
      "inputs": [
        {
          "indexed": true,
          "internalType": "address",
          "name": "previousOwner",
          "type": "address"
        },
        {
          "indexed": true,
          "internalType": "address",
          "name": "newOwner",
          "type": "address"
        }
      ],
      "name": "OwnershipTransferred",
      "type": "event"
    },
    {
      "anonymous": false,
      "inputs": [
        {
          "indexed": true,
          "internalType": "uint256",
          "name": "npcId",
          "type": "uint256"
        },
        {
          "indexed": false,
          "internalType": "uint16",
          "name": "intelligence",
          "type": "uint16"
        },
        {
          "indexed": false,
          "internalType": "uint16",
          "name": "aggression",
          "type": "uint16"
        },
        {
          "indexed": false,
          "internalType": "uint16",
          "name": "sociability",
          "type": "uint16"
        }
      ],
      "name": "TraitsUpdated",
      "type": "event"
    },
    {
      "inputs": [
        {
          "internalType": "uint256",
          "name": "npcId",
          "type": "uint256"
        },
        {
          "internalType": "address",
          "name": "player",
          "type": "address"
        },
        {
          "components": [
            {
              "internalType": "uint16",
              "name": "newRelationshipScore",
              "type": "uint16"
            },
            {
              "internalType": "uint16",
              "name": "newAggression",
              "type": "uint16"
            },
            {
              "internalType": "uint16",
              "name": "newSociability",
              "type": "uint16"
            },
            {
              "internalType": "uint16",
              "name": "newIntelligence",
              "type": "uint16"
            },
            {
              "internalType": "string",
              "name": "memorySnippet",
              "type": "string"
            }
          ],
          "internalType": "struct NPCCore.InteractionOutcome",
          "name": "outcome",
          "type": "tuple"
        }
      ],
      "name": "applyInteractionOutcome",
      "outputs": [],
      "stateMutability": "nonpayable",
      "type": "function"
    },
    {
      "inputs": [
        {
          "internalType": "string",
          "name": "_name",
          "type": "string"
        },
        {
          "internalType": "uint8",
          "name": "_personality",
          "type": "uint8"
        },
        {
          "internalType": "uint16",
          "name": "_intelligence",
          "type": "uint16"
        },
        {
          "internalType": "uint16",
          "name": "_aggression",
          "type": "uint16"
        },
        {
          "internalType": "uint16",
          "name": "_sociability",
          "type": "uint16"
        },
        {
          "internalType": "enum NPCCore.Faction",
          "name": "_faction",
          "type": "uint8"
        }
      ],
      "name": "createNPC",
      "outputs": [
        {
          "internalType": "uint256",
          "name": "",
          "type": "uint256"
        }
      ],
      "stateMutability": "nonpayable",
      "type": "function"
    },
    {
      "inputs": [
        {
          "internalType": "uint256",
          "name": "npcId",
          "type": "uint256"
        }
      ],
      "name": "getMemories",
      "outputs": [
        {
          "internalType": "string[50]",
          "name": "",
          "type": "string[50]"
        }
      ],
      "stateMutability": "view",
      "type": "function"
    },
    {
      "inputs": [],
      "name": "getNPCCount",
      "outputs": [
        {
          "internalType": "uint256",
          "name": "",
          "type": "uint256"
        }
      ],
      "stateMutability": "view",
      "type": "function"
    },
    {
      "inputs": [
        {
          "internalType": "uint256",
          "name": "npcId",
          "type": "uint256"
        }
      ],
      "name": "getNPCFaction",
      "outputs": [
        {
          "internalType": "enum NPCCore.Faction",
          "name": "",
          "type": "uint8"
        }
      ],
      "stateMutability": "view",
      "type": "function"
    },
    {
      "inputs": [
        {
          "internalType": "uint256",
          "name": "npcId",
          "type": "uint256"
        }
      ],
      "name": "getNPCState",
      "outputs": [
        {
          "components": [
            {
              "internalType": "uint256",
              "name": "id",
              "type": "uint256"
            },
            {
              "internalType": "string",
              "name": "name",
              "type": "string"
            },
            {
              "internalType": "uint8",
              "name": "personality",
              "type": "uint8"
            },
            {
              "internalType": "uint16",
              "name": "intelligence",
              "type": "uint16"
            },
            {
              "internalType": "uint16",
              "name": "aggression",
              "type": "uint16"
            },
            {
              "internalType": "uint16",
              "name": "sociability",
              "type": "uint16"
            },
            {
              "internalType": "uint256",
              "name": "experiencePoints",
              "type": "uint256"
            },
            {
              "internalType": "uint256",
              "name": "lastInteraction",
              "type": "uint256"
            },
            {
              "internalType": "bool",
              "name": "isActive",
              "type": "bool"
            },
            {
              "internalType": "enum NPCCore.Faction",
              "name": "faction",
              "type": "uint8"
            }
          ],
          "internalType": "struct NPCCore.NPC",
          "name": "",
          "type": "tuple"
        }
      ],
      "stateMutability": "view",
      "type": "function"
    },
    {
      "inputs": [
        {
          "internalType": "uint256",
          "name": "npcId",
          "type": "uint256"
        },
        {
          "internalType": "address",
          "name": "player",
          "type": "address"
        }
      ],
      "name": "getRelationship",
      "outputs": [
        {
          "internalType": "uint16",
          "name": "",
          "type": "uint16"
        }
      ],
      "stateMutability": "view",
      "type": "function"
    },
    {
      "inputs": [],
      "name": "interactionTrackerAddress",
      "outputs": [
        {
          "internalType": "address",
          "name": "",
          "type": "address"
        }
      ],
      "stateMutability": "view",
      "type": "function"
    },
    {
      "inputs": [],
      "name": "learningEngineAddress",
      "outputs": [
        {
          "internalType": "address",
          "name": "",
          "type": "address"
        }
      ],
      "stateMutability": "view",
      "type": "function"
    },
    {
      "inputs": [
        {
          "internalType": "uint256",
          "name": "",
          "type": "uint256"
        },
        {
          "internalType": "uint256",
          "name": "",
          "type": "uint256"
        }
      ],
      "name": "npcMemories",
      "outputs": [
        {
          "internalType": "string",
          "name": "",
          "type": "string"
        }
      ],
      "stateMutability": "view",
      "type": "function"
    },
    {
      "inputs": [
        {
          "internalType": "uint256",
          "name": "",
          "type": "uint256"
        }
      ],
      "name": "npcMemoryIndex",
      "outputs": [
        {
          "internalType": "uint8",
          "name": "",
          "type": "uint8"
        }
      ],
      "stateMutability": "view",
      "type": "function"
    },
    {
      "inputs": [
        {
          "internalType": "uint256",
          "name": "",
          "type": "uint256"
        }
      ],
      "name": "npcs",
      "outputs": [
        {
          "internalType": "uint256",
          "name": "id",
          "type": "uint256"
        },
        {
          "internalType": "string",
          "name": "name",
          "type": "string"
        },
        {
          "internalType": "uint8",
          "name": "personality",
          "type": "uint8"
        },
        {
          "internalType": "uint16",
          "name": "intelligence",
          "type": "uint16"
        },
        {
          "internalType": "uint16",
          "name": "aggression",
          "type": "uint16"
        },
        {
          "internalType": "uint16",
          "name": "sociability",
          "type": "uint16"
        },
        {
          "internalType": "uint256",
          "name": "experiencePoints",
          "type": "uint256"
        },
        {
          "internalType": "uint256",
          "name": "lastInteraction",
          "type": "uint256"
        },
        {
          "internalType": "bool",
          "name": "isActive",
          "type": "bool"
        },
        {
          "internalType": "enum NPCCore.Faction",
          "name": "faction",
          "type": "uint8"
        }
      ],
      "stateMutability": "view",
      "type": "function"
    },
    {
      "inputs": [],
      "name": "owner",
      "outputs": [
        {
          "internalType": "address",
          "name": "",
          "type": "address"
        }
      ],
      "stateMutability": "view",
      "type": "function"
    },
    {
      "inputs": [
        {
          "internalType": "uint256",
          "name": "",
          "type": "uint256"
        },
        {
          "internalType": "address",
          "name": "",
          "type": "address"
        }
      ],
      "name": "playerRelationships",
      "outputs": [
        {
          "internalType": "uint16",
          "name": "",
          "type": "uint16"
        }
      ],
      "stateMutability": "view",
      "type": "function"
    },
    {
      "inputs": [
        {
          "internalType": "uint256",
          "name": "npcId",
          "type": "uint256"
        },
        {
          "internalType": "string",
          "name": "memorySnippet",
          "type": "string"
        }
      ],
      "name": "recordMemory",
      "outputs": [],
      "stateMutability": "nonpayable",
      "type": "function"
    },
    {
      "inputs": [],
      "name": "renounceOwnership",
      "outputs": [],
      "stateMutability": "nonpayable",
      "type": "function"
    },
    {
      "inputs": [
        {
          "internalType": "address",
          "name": "_interactionTrackerAddress",
          "type": "address"
        }
      ],
      "name": "setInteractionTrackerAddress",
      "outputs": [],
      "stateMutability": "nonpayable",
      "type": "function"
    },
    {
      "inputs": [
        {
          "internalType": "address",
          "name": "_learningEngineAddress",
          "type": "address"
        }
      ],
      "name": "setLearningEngineAddress",
      "outputs": [],
      "stateMutability": "nonpayable",
      "type": "function"
    },
    {
      "inputs": [
        {
          "internalType": "uint256",
          "name": "npcId",
          "type": "uint256"
        },
        {
          "internalType": "address",
          "name": "player",
          "type": "address"
        },
        {
          "internalType": "uint16",
          "name": "score",
          "type": "uint16"
        }
      ],
      "name": "setRelationship",
      "outputs": [],
      "stateMutability": "nonpayable",
      "type": "function"
    },
    {
      "inputs": [
        {
          "internalType": "address",
          "name": "newOwner",
          "type": "address"
        }
      ],
      "name": "transferOwnership",
      "outputs": [],
      "stateMutability": "nonpayable",
      "type": "function"
    },
    {
      "inputs": [
        {
          "internalType": "uint256",
          "name": "npcId",
          "type": "uint256"
        },
        {
          "internalType": "uint16",
          "name": "newIntelligence",
          "type": "uint16"
        },
        {
          "internalType": "uint16",
          "name": "newAggression",
          "type": "uint16"
        },
        {
          "internalType": "uint16",
          "name": "newSociability",
          "type": "uint16"
        }
      ],
      "name": "updateTraits",
      "outputs": [],
      "stateMutability": "nonpayable",
      "type": "function"
    }
  ],
  "bytecode": "0x608080604052346071573315605e575f8054336001600160a01b0319821681178355916001600160a01b03909116907f8be0079c531659141344cd1fd0a4f28419497f9722a3daafe3b4186f6b6457e09080a361141990816100768239f35b631e4fbdf760e01b5f525f60045260245ffd5b5f80fdfe60806040526004361015610011575f80fd5b5f3560e01c8062eeb4ba14610ed55780632d0bb43b146102855780632fea8ef014610ead5780633a2a8fff14610bec5780634c0338d414610a65578063715018a614610a0e57806388dff8b4146109e65780638da5cb5b146109bf578063a234ae5d14610710578063a3a513c11461061f578063aa0431c5146105af578063bbef6c9014610592578063c01187671461054f578063c4bc2abe14610515578063ce8f83f1146103cd578063cfd80af5146102cd578063d52b01a814610285578063df96742014610242578063e2640c89146101b5578063f2fde38b146101305763ffdd10bc146100ff575f80fd5b3461012c57602036600319011261012c576004355f526006602052602060ff60405f205416604051908152f35b5f80fd5b3461012c57602036600319011261012c576101496110ec565b6101516113a6565b6001600160a01b031680156101a2575f80546001600160a01b03198116831782556001600160a01b0316907f8be0079c531659141344cd1fd0a4f28419497f9722a3daafe3b4186f6b6457e09080a3005b631e4fbdf760e01b5f525f60045260245ffd5b3461012c57606036600319011261012c576004356101d16110d6565b6102116101dc611158565b6101f160018060a01b0360025416331461131c565b835f52600360205261020c60ff600560405f200154166112bb565b6113cc565b915f52600460205260405f209060018060a01b03165f5260205261ffff60405f20911661ffff198254161790555f80f35b3461012c57602036600319011261012c5761025b6110ec565b6102636113a6565b600780546001600160a01b0319166001600160a01b0392909216919091179055005b3461012c57604036600319011261012c5761029e6110d6565b6004355f52600460205260405f209060018060a01b03165f52602052602061ffff60405f205416604051908152f35b3461012c57602036600319011261012c576004356102e9611367565b506102f2611367565b90805f52600660205260ff60405f205416905f5b60ff811690603282101561037a57825f52600560205260405f209082850160ff81116103665760ff9361034d61034760019560328861035e96160690611189565b50611005565b610357828a611395565b5287611395565b500116610306565b634e487b7160e01b5f52601160045260245ffd5b8460405180916020820160208352610660830191905f5b603281106103a0575050500390f35b919350916020806103bd600193601f1989820301875287516110a5565b9501930191019084939291610391565b3461012c57608036600319011261012c5760043560243561ffff8116810361012c576105107f6f50b9253b1f1763daa004949daf3b81899caadcd53e04908f059d0a9791b3659161041c611158565b906104d46104b461042b611169565b61044060018060a01b0360025416331461131c565b875f52600360205261045b60ff600560405f200154166112bb565b875f52600360205261020c61049861047660405f20966113cc565b9661020c6002880198899062ffff0082549160081b169062ffff001916179055565b865464ffff000000191660189190911b64ffff00000016178655565b835466ffff0000000000191660289190911b66ffff000000000016178355565b4260049190910155546040805161ffff600884901c81168252601884901c8116602083015260289390931c909216908201529081906060820190565b0390a2005b3461012c57602036600319011261012c576004355f526003602052602060ff600560405f20015460081c1661054d60405180926110c9565bf35b3461012c57602036600319011261012c576105686110ec565b6105706113a6565b600280546001600160a01b0319166001600160a01b0392909216919091179055005b3461012c575f36600319011261012c576020600154604051908152f35b3461012c57604036600319011261012c576024356004355f52600560205260405f2090603281101561012c576105e491611189565b61060c576105f461060891611005565b6040519182916020835260208301906110a5565b0390f35b634e487b7160e01b5f525f60045260245ffd5b3461012c57604036600319011261012c5760043560243567ffffffffffffffff811161012c576105106106777f9f2fa3c54ab66f568a47154ab74a464d294695d488de52e90d802ecebd63b3e0923690600401611102565b61068c60018060a01b0360025416331461131c565b835f5260036020526106a760ff600560405f200154166112bb565b835f526006602052603260ff6106e18160405f205416875f5260056020526106dc856106d68360405f20611189565b906112fb565b61130a565b1606845f52600660205260ff60405f20911660ff198254161790556040519182916020835260208301906110a5565b3461012c57606036600319011261012c5760043561072c6110d6565b60443567ffffffffffffffff811161012c5760a0600319823603011261012c5760405160a0810181811067ffffffffffffffff8211176109ab576040526107758260040161117a565b81526107836024830161117a565b92602082019384526107976044840161117a565b90604083019182526107ab6064850161117a565b936060840194855260848101359067ffffffffffffffff821161012c5760046107d79236920101611102565b608084019081526007549093906001600160a01b0316330361095a577f9f2fa3c54ab66f568a47154ab74a464d294695d488de52e90d802ecebd63b3e095610510956104d46104b461ffff8b977f6f50b9253b1f1763daa004949daf3b81899caadcd53e04908f059d0a9791b36597610870836108f7998c5f52600360205261086960ff600560405f200154166112bb565b51166113cc565b908a5f52600460205260405f209060018060a01b03165f526020528260405f2091168319825416179055885f5260036020526108696108db836108b98160405f209951166113cc565b9861086960028a019a8b9062ffff0082549160081b169062ffff001916179055565b875464ffff000000191660189190911b64ffff00000016178755565b0390a2835f526006602052603260ff61092a8160405f2054166106dc8551895f5260056020526106d68360405f20611189565b1606845f52600660205260ff60405f20911660ff19825416179055516040519182916020835260208301906110a5565b60405162461bcd60e51b8152602060048201526024808201527f43616c6c6572206973206e6f742074686520496e746572616374696f6e54726160448201526331b5b2b960e11b6064820152608490fd5b634e487b7160e01b5f52604160045260245ffd5b3461012c575f36600319011261012c575f546040516001600160a01b039091168152602090f35b3461012c575f36600319011261012c576007546040516001600160a01b039091168152602090f35b3461012c575f36600319011261012c57610a266113a6565b5f80546001600160a01b0319811682556001600160a01b03167f8be0079c531659141344cd1fd0a4f28419497f9722a3daafe3b4186f6b6457e08280a3005b3461012c57602036600319011261012c57604051610a8281610fc6565b5f81526020810160609052604081015f9052606081015f9052608081015f905260a081015f905260c081015f905260e081015f905261010081015f9052610120015f90526004355f52600360205260405f20604051610ae081610fc6565b81548152610af060018301611005565b91602082019283526002810154604083019160ff8216835260608401908260081c61ffff16825260808501928060181c61ffff16845260a086019060281c61ffff16815260038201549060c0870191825260048301549260e08801938452600501549461010088019460ff87161515865261012089019660081c60ff16610b7790886111ac565b604051998a9960208b525160208b01525160408a0161014090526101608a01610b9f916110a5565b975160ff1660608a01525161ffff1660808901525161ffff1660a08801525161ffff1660c08701525160e086015251610100850152511515610120840152516101408301610608916110c9565b3461012c5760c036600319011261012c5760043567ffffffffffffffff811161012c57610c1d903690600401611102565b60243560ff811680910361012c57610c33611158565b90610c3c611169565b6084359161ffff831680930361012c5760a43591600583101561012c57610c616113a6565b61ffff6001549516906103e882111580610e9d575b80610e91575b15610e545760028311610e0f5760405192610c9684610fc6565b86845260208401958887526040850191825260608501938452608085019261ffff16835260a0850190815260c08501925f845260e086019442865261010087019860018a52610120880198610ceb908a6111ac565b8a5f52600360205260405f2097518855516001880190610d0a916111b8565b9251600287018054945162ffff0060089190911b1660ff90921662ffffff199095169490941717835551825464ffff000000191660189190911b64ffff0000001617825551815466ffff0000000000191660289190911b66ffff0000000000161790555160038301555160048201556005019151151590825490516005811015610dfb5761ff0060ff9160081b1692169061ffff1916171790556001545f198114610366577f11f091efcf4e3dde75a12ddb15f1a4fbb94e7bbf5a18ad74580e78bdce15d40d610df06020946001859401600155604051918291878352878301906110a5565b0390a2604051908152f35b634e487b7160e01b5f52602160045260245ffd5b60405162461bcd60e51b815260206004820152601e60248201527f506572736f6e616c697479206d75737420626520302c20312c206f72203200006044820152606490fd5b60405162461bcd60e51b81526020600482015260156024820152740547261697473206d75737420626520302d3130303605c1b6044820152606490fd5b506103e8851115610c7c565b506103e861ffff82161115610c76565b3461012c575f36600319011261012c576002546040516001600160a01b039091168152602090f35b3461012c57602036600319011261012c576004355f52600360205260405f208054610f0260018301611005565b91610608600282015491600381015490600560048201549101549161ffff610f3e604051988998895261014060208a01526101408901906110a5565b9560ff81166040890152818160081c166060890152818160181c16608089015260281c1660a087015260c086015260e085015260ff8116151561010085015260ff61012085019160081c166110c9565b90600182811c92168015610fbc575b6020831014610fa857565b634e487b7160e01b5f52602260045260245ffd5b91607f1691610f9d565b610140810190811067ffffffffffffffff8211176109ab57604052565b90601f8019910116810190811067ffffffffffffffff8211176109ab57604052565b9060405191825f82549261101884610f8e565b8084529360018116908115611083575060011461103f575b5061103d92500383610fe3565b565b90505f9291925260205f20905f915b81831061106757505090602061103d928201015f611030565b602091935080600191548385890101520191019091849261104e565b90506020925061103d94915060ff191682840152151560051b8201015f611030565b805180835260209291819084018484015e5f828201840152601f01601f1916010190565b906005821015610dfb5752565b602435906001600160a01b038216820361012c57565b600435906001600160a01b038216820361012c57565b81601f8201121561012c5780359067ffffffffffffffff82116109ab5760405192611137601f8401601f191660200185610fe3565b8284526020838301011161012c57815f926020809301838601378301015290565b6044359061ffff8216820361012c57565b6064359061ffff8216820361012c57565b359061ffff8216820361012c57565b60328210156111985701905f90565b634e487b7160e01b5f52603260045260245ffd5b6005821015610dfb5752565b919091825167ffffffffffffffff81116109ab576111d68254610f8e565b601f8111611276575b506020601f821160011461121857819293945f9261120d575b50508160011b915f199060031b1c1916179055565b015190505f806111f8565b601f19821690835f52805f20915f5b81811061125e57509583600195969710611246575b505050811b019055565b01515f1960f88460031b161c191690555f808061123c565b9192602060018192868b015181550194019201611227565b825f5260205f20601f830160051c810191602084106112b1575b601f0160051c01905b8181106112a657506111df565b5f8155600101611299565b9091508190611290565b156112c257565b60405162461bcd60e51b81526020600482015260116024820152704e5043206973206e6f742061637469766560781b6044820152606490fd5b919061060c5761103d916111b8565b60ff60019116019060ff821161036657565b1561132357565b606460405162461bcd60e51b815260206004820152602060248201527f43616c6c6572206973206e6f7420746865204c6561726e696e67456e67696e656044820152fd5b604051906106406113788184610fe3565b825f5b82811061138757505050565b60608282015260200161137b565b9060328110156111985760051b0190565b5f546001600160a01b031633036113b957565b63118cdaa760e01b5f523360045260245ffd5b6103e861ffff8216116113dc5790565b506103e89056fea26469706673582212202410db1c7dc2c75300d8e5bb82f30b2e1a917ffa7c3add560d4c8909fc9209fa64736f6c634300081c0033",
  "linkReferences": {},
  "deployedLinkReferences": {},
  "immutableReferences": {},
  "inputSourceName": "project/contracts/NPCCore.sol",
  "buildInfoId": "solc-0_8_28-1dfd718cc158ec3cebf3dfe55be8fd614ae0a44b"
}